{
  "contractName": "BusinessContract",
  "abi": [
    {
      "inputs": [],
      "payable": false,
      "stateMutability": "nonpayable",
      "type": "constructor"
    },
    {
      "constant": true,
      "inputs": [],
      "name": "ourCompanyAccount",
      "outputs": [
        {
          "internalType": "address",
          "name": "",
          "type": "address"
        }
      ],
      "payable": false,
      "stateMutability": "view",
      "type": "function"
    },
    {
      "constant": true,
      "inputs": [],
      "name": "txCounter",
      "outputs": [
        {
          "internalType": "uint256",
          "name": "",
          "type": "uint256"
        }
      ],
      "payable": false,
      "stateMutability": "view",
      "type": "function"
    },
    {
      "constant": false,
      "inputs": [
        {
          "internalType": "address",
          "name": "_address",
          "type": "address"
        }
      ],
      "name": "setAccount",
      "outputs": [],
      "payable": false,
      "stateMutability": "nonpayable",
      "type": "function"
    },
    {
      "constant": false,
      "inputs": [],
      "name": "processTransaction",
      "outputs": [
        {
          "internalType": "uint256",
          "name": "",
          "type": "uint256"
        }
      ],
      "payable": false,
      "stateMutability": "nonpayable",
      "type": "function"
    }
  ],
  "bytecode": "0x608060405234801561001057600080fd5b5073f3b6f0ac5b976ac0bb37db749d1d6eaeb7df9f586000806101000a81548173ffffffffffffffffffffffffffffffffffffffff021916908373ffffffffffffffffffffffffffffffffffffffff16021790555061029c806100746000396000f3fe608060405234801561001057600080fd5b506004361061004c5760003560e01c806329f6d57c1461005157806374f079b814610095578063b8ee279b146100b3578063c7e824f6146100fd575b600080fd5b6100936004803603602081101561006757600080fd5b81019080803573ffffffffffffffffffffffffffffffffffffffff16906020019092919050505061011b565b005b61009d61015e565b6040518082815260200191505060405180910390f35b6100bb610164565b604051808273ffffffffffffffffffffffffffffffffffffffff1673ffffffffffffffffffffffffffffffffffffffff16815260200191505060405180910390f35b610105610189565b6040518082815260200191505060405180910390f35b806000806101000a81548173ffffffffffffffffffffffffffffffffffffffff021916908373ffffffffffffffffffffffffffffffffffffffff16021790555050565b60015481565b6000809054906101000a900473ffffffffffffffffffffffffffffffffffffffff1681565b60008060009054906101000a900473ffffffffffffffffffffffffffffffffffffffff1673ffffffffffffffffffffffffffffffffffffffff163373ffffffffffffffffffffffffffffffffffffffff161461024d576040517f08c379a000000000000000000000000000000000000000000000000000000000815260040180806020018281038252600c8152602001807f756e617574686f72697a6564000000000000000000000000000000000000000081525060200191505060405180910390fd5b60016000815480929190600101919050555060015490509056fea265627a7a72315820fa78891d7374abf5bcf676e9dece0ac8fa0e1f5ca41c673382f74158ecdefe5a64736f6c63430005100032",
  "source": "pragma solidity ^0.5.4;\r\n\r\ncontract BusinessContract {\r\n\r\n    address public ourCompanyAccount;\r\n\r\n    uint public txCounter;\r\n\r\n    constructor() public {\r\n        ourCompanyAccount = 0xF3B6f0Ac5B976aC0bb37dB749d1d6EAeB7df9F58;\r\n    }\r\n\r\n    function setAccount(address _address) external {\r\n        ourCompanyAccount = _address;\r\n    }\r\n\r\n    function processTransaction() external returns (uint) {\r\n        require(msg.sender == ourCompanyAccount, \"unauthorized\");\r\n        txCounter++;\r\n        return txCounter;\r\n    }\r\n}\r\n",
  "sourcePath": "C:/Users/delzer/Documents/eth-tx-scaling/truffle/contracts/BusinessContract.sol",
  "compiler": {
    "name": "solc",
    "version": "0.5.16+commit.9c3226ce.Emscripten.clang"
  },
  "schemaVersion": "3.4.1",
  "updatedAt": "2021-06-18T08:25:22.094Z",
  "networkType": "ethereum",
  "devdoc": {
    "methods": {}
  },
  "userdoc": {
    "methods": {}
  }
}