{
  "contractName": "AuthContract",
  "abi": [
    {
      "inputs": [],
      "payable": false,
      "stateMutability": "nonpayable",
      "type": "constructor"
    },
    {
      "constant": true,
      "inputs": [],
      "name": "mainAccount",
      "outputs": [
        {
          "internalType": "address",
          "name": "",
          "type": "address"
        }
      ],
      "payable": false,
      "stateMutability": "view",
      "type": "function"
    },
    {
      "constant": true,
      "inputs": [],
      "name": "proxyContract",
      "outputs": [
        {
          "internalType": "contract Proxy",
          "name": "",
          "type": "address"
        }
      ],
      "payable": false,
      "stateMutability": "view",
      "type": "function"
    },
    {
      "constant": true,
      "inputs": [
        {
          "internalType": "address",
          "name": "",
          "type": "address"
        }
      ],
      "name": "validAccounts",
      "outputs": [
        {
          "internalType": "bool",
          "name": "",
          "type": "bool"
        }
      ],
      "payable": false,
      "stateMutability": "view",
      "type": "function"
    },
    {
      "constant": false,
      "inputs": [
        {
          "internalType": "address",
          "name": "accountAddress",
          "type": "address"
        }
      ],
      "name": "addAccount",
      "outputs": [],
      "payable": false,
      "stateMutability": "nonpayable",
      "type": "function"
    },
    {
      "constant": false,
      "inputs": [
        {
          "internalType": "address",
          "name": "accountAddress",
          "type": "address"
        }
      ],
      "name": "removeAccount",
      "outputs": [],
      "payable": false,
      "stateMutability": "nonpayable",
      "type": "function"
    },
    {
      "constant": false,
      "inputs": [
        {
          "internalType": "address",
          "name": "_address",
          "type": "address"
        }
      ],
      "name": "setContract",
      "outputs": [],
      "payable": false,
      "stateMutability": "nonpayable",
      "type": "function"
    },
    {
      "constant": false,
      "inputs": [],
      "name": "forwardTransaction",
      "outputs": [],
      "payable": false,
      "stateMutability": "nonpayable",
      "type": "function"
    }
  ],
  "bytecode": "0x608060405234801561001057600080fd5b50336000806101000a81548173ffffffffffffffffffffffffffffffffffffffff021916908373ffffffffffffffffffffffffffffffffffffffff1602179055507317cb057648a03de335c773c7f6b7719c63a32eb7600260006101000a81548173ffffffffffffffffffffffffffffffffffffffff021916908373ffffffffffffffffffffffffffffffffffffffff160217905550600180600073acae83b7925a6a92e02311047b1b030b2f54ea4473ffffffffffffffffffffffffffffffffffffffff1673ffffffffffffffffffffffffffffffffffffffff16815260200190815260200160002060006101000a81548160ff021916908315150217905550600180600073897dc876771d55fb5e5fa237b66065f51a8a8fb673ffffffffffffffffffffffffffffffffffffffff1673ffffffffffffffffffffffffffffffffffffffff16815260200190815260200160002060006101000a81548160ff021916908315150217905550600180600073270c6fda3c1dda23c5572f6a942c25c0a7754ac273ffffffffffffffffffffffffffffffffffffffff1673ffffffffffffffffffffffffffffffffffffffff16815260200190815260200160002060006101000a81548160ff021916908315150217905550600180600073b22fe67f76598246e040a8192565b02e08eef11b73ffffffffffffffffffffffffffffffffffffffff1673ffffffffffffffffffffffffffffffffffffffff16815260200190815260200160002060006101000a81548160ff0219169083151502179055506001806000737629e1a91e0ae8be00e28aa0b81c0aeff390d9f673ffffffffffffffffffffffffffffffffffffffff1673ffffffffffffffffffffffffffffffffffffffff16815260200190815260200160002060006101000a81548160ff021916908315150217905550600180600073fdf87b895d37d2c4bca2713656aaceff53c83c3973ffffffffffffffffffffffffffffffffffffffff1673ffffffffffffffffffffffffffffffffffffffff16815260200190815260200160002060006101000a81548160ff02191690831515021790555060018060007336d313e50e1f84aabd39a622e26e3273c7913ec473ffffffffffffffffffffffffffffffffffffffff1673ffffffffffffffffffffffffffffffffffffffff16815260200190815260200160002060006101000a81548160ff0219169083151502179055506001806000739607ea4a0204a150a3afeeac79153e7799150e4573ffffffffffffffffffffffffffffffffffffffff1673ffffffffffffffffffffffffffffffffffffffff16815260200190815260200160002060006101000a81548160ff021916908315150217905550600180600073e64d9c60c727a37c7780755b87ab5279a5db5c5873ffffffffffffffffffffffffffffffffffffffff1673ffffffffffffffffffffffffffffffffffffffff16815260200190815260200160002060006101000a81548160ff02191690831515021790555060018060007303a518d469df70c628c78b094c2ca2f4a47f45b573ffffffffffffffffffffffffffffffffffffffff1673ffffffffffffffffffffffffffffffffffffffff16815260200190815260200160002060006101000a81548160ff02191690831515021790555060018060007396e17975610bddd4d456c668929bb0c63ca05f5173ffffffffffffffffffffffffffffffffffffffff1673ffffffffffffffffffffffffffffffffffffffff16815260200190815260200160002060006101000a81548160ff02191690831515021790555061076a8061054e6000396000f3fe608060405234801561001057600080fd5b506004361061007d5760003560e01c8063c4740a951161005b578063c4740a951461011a578063e35a602c1461015e578063e89b0e1e146101ba578063ed550443146101fe5761007d565b80631123cfe0146100825780634fc8fc6b146100cc57806375f890ab146100d6575b600080fd5b61008a610248565b604051808273ffffffffffffffffffffffffffffffffffffffff1673ffffffffffffffffffffffffffffffffffffffff16815260200191505060405180910390f35b6100d461026d565b005b610118600480360360208110156100ec57600080fd5b81019080803573ffffffffffffffffffffffffffffffffffffffff1690602001909291905050506103b0565b005b61015c6004803603602081101561013057600080fd5b81019080803573ffffffffffffffffffffffffffffffffffffffff1690602001909291905050506104b6565b005b6101a06004803603602081101561017457600080fd5b81019080803573ffffffffffffffffffffffffffffffffffffffff1690602001909291905050506105d3565b604051808215151515815260200191505060405180910390f35b6101fc600480360360208110156101d057600080fd5b81019080803573ffffffffffffffffffffffffffffffffffffffff1690602001909291905050506105f3565b005b61020661070f565b604051808273ffffffffffffffffffffffffffffffffffffffff1673ffffffffffffffffffffffffffffffffffffffff16815260200191505060405180910390f35b6000809054906101000a900473ffffffffffffffffffffffffffffffffffffffff1681565b600160003373ffffffffffffffffffffffffffffffffffffffff1673ffffffffffffffffffffffffffffffffffffffff16815260200190815260200160002060009054906101000a900460ff1661032c576040517f08c379a00000000000000000000000000000000000000000000000000000000081526004018080602001828103825260168152602001807f556e6b6e6f776e206f726967696e206163636f756e740000000000000000000081525060200191505060405180910390fd5b600260009054906101000a900473ffffffffffffffffffffffffffffffffffffffff1673ffffffffffffffffffffffffffffffffffffffff1663c7e824f66040518163ffffffff1660e01b8152600401600060405180830381600087803b15801561039657600080fd5b505af11580156103aa573d6000803e3d6000fd5b50505050565b3373ffffffffffffffffffffffffffffffffffffffff166000809054906101000a900473ffffffffffffffffffffffffffffffffffffffff1673ffffffffffffffffffffffffffffffffffffffff1614610472576040517f08c379a000000000000000000000000000000000000000000000000000000000815260040180806020018281038252600c8152602001807f756e617574686f72697a6564000000000000000000000000000000000000000081525060200191505060405180910390fd5b80600260006101000a81548173ffffffffffffffffffffffffffffffffffffffff021916908373ffffffffffffffffffffffffffffffffffffffff16021790555050565b3373ffffffffffffffffffffffffffffffffffffffff166000809054906101000a900473ffffffffffffffffffffffffffffffffffffffff1673ffffffffffffffffffffffffffffffffffffffff1614610578576040517f08c379a000000000000000000000000000000000000000000000000000000000815260040180806020018281038252600c8152602001807f756e617574686f72697a6564000000000000000000000000000000000000000081525060200191505060405180910390fd5b6000600160008373ffffffffffffffffffffffffffffffffffffffff1673ffffffffffffffffffffffffffffffffffffffff16815260200190815260200160002060006101000a81548160ff02191690831515021790555050565b60016020528060005260406000206000915054906101000a900460ff1681565b3373ffffffffffffffffffffffffffffffffffffffff166000809054906101000a900473ffffffffffffffffffffffffffffffffffffffff1673ffffffffffffffffffffffffffffffffffffffff16146106b5576040517f08c379a000000000000000000000000000000000000000000000000000000000815260040180806020018281038252600c8152602001807f756e617574686f72697a6564000000000000000000000000000000000000000081525060200191505060405180910390fd5b60018060008373ffffffffffffffffffffffffffffffffffffffff1673ffffffffffffffffffffffffffffffffffffffff16815260200190815260200160002060006101000a81548160ff02191690831515021790555050565b600260009054906101000a900473ffffffffffffffffffffffffffffffffffffffff168156fea265627a7a723158209764d564394daf6611c5334ac2555c2e1fd1d1a1329e198153dabc0b906b6dd364736f6c63430005100032",
  "source": "pragma solidity ^0.5.4;\r\n\r\ncontract AuthContract {\r\n\r\n    address public mainAccount;\r\n\r\n    mapping(address => bool) public validAccounts;\r\n\r\n    Proxy public proxyContract;\r\n\r\n    constructor() public {\r\n        mainAccount = msg.sender;\r\n        proxyContract = Proxy(0x17cB057648a03dE335c773C7F6b7719c63A32eB7);\r\n        validAccounts[0xaCAe83b7925A6a92e02311047b1b030b2F54eA44] = true;\r\n        validAccounts[0x897dC876771D55FB5e5Fa237B66065f51a8A8FB6] = true;\r\n        validAccounts[0x270C6fDA3c1dda23c5572F6a942c25C0A7754aC2] = true;\r\n        validAccounts[0xb22fe67f76598246e040a8192565B02E08eEF11B] = true;\r\n        validAccounts[0x7629e1a91e0aE8Be00e28aA0b81c0Aeff390d9f6] = true;\r\n        validAccounts[0xFDF87b895d37d2C4BCA2713656AaCeFf53c83C39] = true;\r\n        validAccounts[0x36D313e50E1f84aabD39A622E26E3273c7913eC4] = true;\r\n        validAccounts[0x9607eA4a0204a150A3AfEEAc79153e7799150E45] = true;\r\n        validAccounts[0xe64d9C60c727A37c7780755B87AB5279A5dB5c58] = true;\r\n        validAccounts[0x03a518d469dF70c628c78B094c2cA2f4A47f45b5] = true;\r\n        validAccounts[0x96E17975610bddD4D456c668929bB0C63cA05f51] = true;\r\n    }\r\n\r\n    function addAccount(address accountAddress) external {\r\n        require(mainAccount == msg.sender, \"unauthorized\");\r\n        validAccounts[accountAddress] = true;\r\n    }\r\n\r\n    function removeAccount(address accountAddress) external {\r\n        require(mainAccount == msg.sender, \"unauthorized\");\r\n        validAccounts[accountAddress] = false;\r\n    }\r\n\r\n    function setContract(address _address) external {\r\n        require(mainAccount == msg.sender, \"unauthorized\");\r\n        proxyContract = Proxy(_address);\r\n    }\r\n\r\n    function forwardTransaction() external {\r\n        require(validAccounts[msg.sender], \"Unknown origin account\");\r\n        proxyContract.processTransaction();\r\n    }\r\n\r\n}\r\n\r\ncontract Proxy {\r\n    function processTransaction() external;\r\n}",
  "sourcePath": "C:/Users/delzer/Documents/eth-tx-scaling/truffle/contracts/AuthContract.sol",
  "compiler": {
    "name": "solc",
    "version": "0.5.16+commit.9c3226ce.Emscripten.clang"
  },
  "schemaVersion": "3.4.1",
  "updatedAt": "2021-06-21T12:30:10.061Z",
  "networkType": "ethereum",
  "devdoc": {
    "methods": {}
  },
  "userdoc": {
    "methods": {}
  }
}