{
  "contractName": "SeminarContract",
  "abi": [
    {
      "constant": true,
      "inputs": [],
      "name": "text",
      "outputs": [
        {
          "internalType": "string",
          "name": "",
          "type": "string"
        }
      ],
      "payable": false,
      "stateMutability": "view",
      "type": "function"
    },
    {
      "constant": false,
      "inputs": [
        {
          "internalType": "string",
          "name": "message",
          "type": "string"
        }
      ],
      "name": "appendText",
      "outputs": [
        {
          "internalType": "bool",
          "name": "",
          "type": "bool"
        }
      ],
      "payable": false,
      "stateMutability": "nonpayable",
      "type": "function"
    }
  ],
  "bytecode": "0x608060405234801561001057600080fd5b5061036d806100206000396000f3fe608060405234801561001057600080fd5b50600436106100365760003560e01c80631f1bd6921461003b578063e2af0b78146100be575b600080fd5b61004361014f565b6040518080602001828103825283818151815260200191508051906020019080838360005b83811015610083578082015181840152602081019050610068565b50505050905090810190601f1680156100b05780820380516001836020036101000a031916815260200191505b509250505060405180910390f35b610135600480360360208110156100d457600080fd5b81019080803590602001906401000000008111156100f157600080fd5b82018360208201111561010357600080fd5b8035906020019184600183028401116401000000008311171561012557600080fd5b90919293919293905050506101ed565b604051808215151515815260200191505060405180910390f35b60008054600181600116156101000203166002900480601f0160208091040260200160405190810160405280929190818152602001828054600181600116156101000203166002900480156101e55780601f106101ba576101008083540402835291602001916101e5565b820191906000526020600020905b8154815290600101906020018083116101c857829003601f168201915b505050505081565b600080838360405160200180848054600181600116156101000203166002900480156102505780601f1061022e576101008083540402835291820191610250565b820191906000526020600020905b81548152906001019060200180831161023c575b505083838082843780830192505050935050505060405160208183030381529060405260009080519060200190610288929190610293565b506001905092915050565b828054600181600116156101000203166002900490600052602060002090601f016020900481019282601f106102d457805160ff1916838001178555610302565b82800160010185558215610302579182015b828111156103015782518255916020019190600101906102e6565b5b50905061030f9190610313565b5090565b61033591905b80821115610331576000816000905550600101610319565b5090565b9056fea265627a7a72315820488c47f782b1a371dc0b96d46256067ff1bc0a403d0428fa6565e6cc97a8c0e864736f6c63430005100032",
  "source": "pragma solidity ^0.5.4;\r\n\r\ncontract SeminarContract {\r\n\r\n    string public text;\r\n\r\n    function appendText(string calldata message) external returns (bool){\r\n        text = string(abi.encodePacked(text, message));\r\n        return true;\r\n    }\r\n}",
  "sourcePath": "C:/Users/delzer/Documents/CHTSBE/truffle/contracts/SeminarContract.sol",
  "compiler": {
    "name": "solc",
    "version": "0.5.16+commit.9c3226ce.Emscripten.clang"
  },
  "schemaVersion": "3.4.1",
  "updatedAt": "2021-06-13T19:21:30.776Z",
  "networkType": "ethereum",
  "devdoc": {
    "methods": {}
  },
  "userdoc": {
    "methods": {}
  }
}